{
  "contractName": "Condos",
  "abi": [
    {
      "inputs": [
        {
          "internalType": "address",
          "name": "initialOwner",
          "type": "address"
        }
      ],
      "stateMutability": "nonpayable",
      "type": "constructor"
    },
    {
      "inputs": [
        {
          "internalType": "address",
          "name": "sender",
          "type": "address"
        },
        {
          "internalType": "uint256",
          "name": "tokenId",
          "type": "uint256"
        },
        {
          "internalType": "address",
          "name": "owner",
          "type": "address"
        }
      ],
      "name": "ERC721IncorrectOwner",
      "type": "error"
    },
    {
      "inputs": [
        {
          "internalType": "address",
          "name": "operator",
          "type": "address"
        },
        {
          "internalType": "uint256",
          "name": "tokenId",
          "type": "uint256"
        }
      ],
      "name": "ERC721InsufficientApproval",
      "type": "error"
    },
    {
      "inputs": [
        {
          "internalType": "address",
          "name": "approver",
          "type": "address"
        }
      ],
      "name": "ERC721InvalidApprover",
      "type": "error"
    },
    {
      "inputs": [
        {
          "internalType": "address",
          "name": "operator",
          "type": "address"
        }
      ],
      "name": "ERC721InvalidOperator",
      "type": "error"
    },
    {
      "inputs": [
        {
          "internalType": "address",
          "name": "owner",
          "type": "address"
        }
      ],
      "name": "ERC721InvalidOwner",
      "type": "error"
    },
    {
      "inputs": [
        {
          "internalType": "address",
          "name": "receiver",
          "type": "address"
        }
      ],
      "name": "ERC721InvalidReceiver",
      "type": "error"
    },
    {
      "inputs": [
        {
          "internalType": "address",
          "name": "sender",
          "type": "address"
        }
      ],
      "name": "ERC721InvalidSender",
      "type": "error"
    },
    {
      "inputs": [
        {
          "internalType": "uint256",
          "name": "tokenId",
          "type": "uint256"
        }
      ],
      "name": "ERC721NonexistentToken",
      "type": "error"
    },
    {
      "inputs": [
        {
          "internalType": "address",
          "name": "owner",
          "type": "address"
        }
      ],
      "name": "OwnableInvalidOwner",
      "type": "error"
    },
    {
      "inputs": [
        {
          "internalType": "address",
          "name": "account",
          "type": "address"
        }
      ],
      "name": "OwnableUnauthorizedAccount",
      "type": "error"
    },
    {
      "anonymous": false,
      "inputs": [
        {
          "indexed": true,
          "internalType": "address",
          "name": "owner",
          "type": "address"
        },
        {
          "indexed": true,
          "internalType": "address",
          "name": "approved",
          "type": "address"
        },
        {
          "indexed": true,
          "internalType": "uint256",
          "name": "tokenId",
          "type": "uint256"
        }
      ],
      "name": "Approval",
      "type": "event"
    },
    {
      "anonymous": false,
      "inputs": [
        {
          "indexed": true,
          "internalType": "address",
          "name": "owner",
          "type": "address"
        },
        {
          "indexed": true,
          "internalType": "address",
          "name": "operator",
          "type": "address"
        },
        {
          "indexed": false,
          "internalType": "bool",
          "name": "approved",
          "type": "bool"
        }
      ],
      "name": "ApprovalForAll",
      "type": "event"
    },
    {
      "anonymous": false,
      "inputs": [
        {
          "indexed": false,
          "internalType": "uint256",
          "name": "_fromTokenId",
          "type": "uint256"
        },
        {
          "indexed": false,
          "internalType": "uint256",
          "name": "_toTokenId",
          "type": "uint256"
        }
      ],
      "name": "BatchMetadataUpdate",
      "type": "event"
    },
    {
      "anonymous": false,
      "inputs": [
        {
          "indexed": false,
          "internalType": "uint256",
          "name": "_tokenId",
          "type": "uint256"
        }
      ],
      "name": "MetadataUpdate",
      "type": "event"
    },
    {
      "anonymous": false,
      "inputs": [
        {
          "indexed": true,
          "internalType": "address",
          "name": "previousOwner",
          "type": "address"
        },
        {
          "indexed": true,
          "internalType": "address",
          "name": "newOwner",
          "type": "address"
        }
      ],
      "name": "OwnershipTransferred",
      "type": "event"
    },
    {
      "anonymous": false,
      "inputs": [
        {
          "indexed": true,
          "internalType": "address",
          "name": "from",
          "type": "address"
        },
        {
          "indexed": true,
          "internalType": "address",
          "name": "to",
          "type": "address"
        },
        {
          "indexed": true,
          "internalType": "uint256",
          "name": "tokenId",
          "type": "uint256"
        }
      ],
      "name": "Transfer",
      "type": "event"
    },
    {
      "inputs": [
        {
          "internalType": "address",
          "name": "to",
          "type": "address"
        },
        {
          "internalType": "uint256",
          "name": "tokenId",
          "type": "uint256"
        }
      ],
      "name": "approve",
      "outputs": [],
      "stateMutability": "nonpayable",
      "type": "function"
    },
    {
      "inputs": [
        {
          "internalType": "address",
          "name": "owner",
          "type": "address"
        }
      ],
      "name": "balanceOf",
      "outputs": [
        {
          "internalType": "uint256",
          "name": "",
          "type": "uint256"
        }
      ],
      "stateMutability": "view",
      "type": "function",
      "constant": true
    },
    {
      "inputs": [
        {
          "internalType": "uint256",
          "name": "tokenId",
          "type": "uint256"
        }
      ],
      "name": "getApproved",
      "outputs": [
        {
          "internalType": "address",
          "name": "",
          "type": "address"
        }
      ],
      "stateMutability": "view",
      "type": "function",
      "constant": true
    },
    {
      "inputs": [
        {
          "internalType": "address",
          "name": "owner",
          "type": "address"
        },
        {
          "internalType": "address",
          "name": "operator",
          "type": "address"
        }
      ],
      "name": "isApprovedForAll",
      "outputs": [
        {
          "internalType": "bool",
          "name": "",
          "type": "bool"
        }
      ],
      "stateMutability": "view",
      "type": "function",
      "constant": true
    },
    {
      "inputs": [],
      "name": "name",
      "outputs": [
        {
          "internalType": "string",
          "name": "",
          "type": "string"
        }
      ],
      "stateMutability": "view",
      "type": "function",
      "constant": true
    },
    {
      "inputs": [],
      "name": "owner",
      "outputs": [
        {
          "internalType": "address",
          "name": "",
          "type": "address"
        }
      ],
      "stateMutability": "view",
      "type": "function",
      "constant": true
    },
    {
      "inputs": [
        {
          "internalType": "uint256",
          "name": "tokenId",
          "type": "uint256"
        }
      ],
      "name": "ownerOf",
      "outputs": [
        {
          "internalType": "address",
          "name": "",
          "type": "address"
        }
      ],
      "stateMutability": "view",
      "type": "function",
      "constant": true
    },
    {
      "inputs": [],
      "name": "renounceOwnership",
      "outputs": [],
      "stateMutability": "nonpayable",
      "type": "function"
    },
    {
      "inputs": [
        {
          "internalType": "address",
          "name": "from",
          "type": "address"
        },
        {
          "internalType": "address",
          "name": "to",
          "type": "address"
        },
        {
          "internalType": "uint256",
          "name": "tokenId",
          "type": "uint256"
        }
      ],
      "name": "safeTransferFrom",
      "outputs": [],
      "stateMutability": "nonpayable",
      "type": "function"
    },
    {
      "inputs": [
        {
          "internalType": "address",
          "name": "from",
          "type": "address"
        },
        {
          "internalType": "address",
          "name": "to",
          "type": "address"
        },
        {
          "internalType": "uint256",
          "name": "tokenId",
          "type": "uint256"
        },
        {
          "internalType": "bytes",
          "name": "data",
          "type": "bytes"
        }
      ],
      "name": "safeTransferFrom",
      "outputs": [],
      "stateMutability": "nonpayable",
      "type": "function"
    },
    {
      "inputs": [
        {
          "internalType": "address",
          "name": "operator",
          "type": "address"
        },
        {
          "internalType": "bool",
          "name": "approved",
          "type": "bool"
        }
      ],
      "name": "setApprovalForAll",
      "outputs": [],
      "stateMutability": "nonpayable",
      "type": "function"
    },
    {
      "inputs": [
        {
          "internalType": "bytes4",
          "name": "interfaceId",
          "type": "bytes4"
        }
      ],
      "name": "supportsInterface",
      "outputs": [
        {
          "internalType": "bool",
          "name": "",
          "type": "bool"
        }
      ],
      "stateMutability": "view",
      "type": "function",
      "constant": true
    },
    {
      "inputs": [],
      "name": "symbol",
      "outputs": [
        {
          "internalType": "string",
          "name": "",
          "type": "string"
        }
      ],
      "stateMutability": "view",
      "type": "function",
      "constant": true
    },
    {
      "inputs": [
        {
          "internalType": "uint256",
          "name": "tokenId",
          "type": "uint256"
        }
      ],
      "name": "tokenURI",
      "outputs": [
        {
          "internalType": "string",
          "name": "",
          "type": "string"
        }
      ],
      "stateMutability": "view",
      "type": "function",
      "constant": true
    },
    {
      "inputs": [
        {
          "internalType": "address",
          "name": "from",
          "type": "address"
        },
        {
          "internalType": "address",
          "name": "to",
          "type": "address"
        },
        {
          "internalType": "uint256",
          "name": "tokenId",
          "type": "uint256"
        }
      ],
      "name": "transferFrom",
      "outputs": [],
      "stateMutability": "nonpayable",
      "type": "function"
    },
    {
      "inputs": [
        {
          "internalType": "address",
          "name": "newOwner",
          "type": "address"
        }
      ],
      "name": "transferOwnership",
      "outputs": [],
      "stateMutability": "nonpayable",
      "type": "function"
    },
    {
      "inputs": [
        {
          "internalType": "address",
          "name": "to",
          "type": "address"
        },
        {
          "internalType": "string",
          "name": "uri",
          "type": "string"
        }
      ],
      "name": "mint",
      "outputs": [
        {
          "internalType": "uint256",
          "name": "tokenId",
          "type": "uint256"
        }
      ],
      "stateMutability": "nonpayable",
      "type": "function"
    }
  ],
  "bytecode": "0x60806040523480156200001157600080fd5b506040516200175b3803806200175b833981016040819052620000349162000141565b806040518060400160405280601581526020017f436f6e646f204f776e65727368697020546f6b656e000000000000000000000081525060405180604001604052806006815260200165434f4e444f5360d01b81525081600090816200009b919062000218565b506001620000aa828262000218565b5050506001600160a01b038116620000dc57604051631e4fbdf760e01b81526000600482015260240160405180910390fd5b620000e781620000ef565b5050620002e4565b600780546001600160a01b038381166001600160a01b0319831681179093556040519116919082907f8be0079c531659141344cd1fd0a4f28419497f9722a3daafe3b4186f6b6457e090600090a35050565b6000602082840312156200015457600080fd5b81516001600160a01b03811681146200016c57600080fd5b9392505050565b634e487b7160e01b600052604160045260246000fd5b600181811c908216806200019e57607f821691505b602082108103620001bf57634e487b7160e01b600052602260045260246000fd5b50919050565b601f8211156200021357600081815260208120601f850160051c81016020861015620001ee5750805b601f850160051c820191505b818110156200020f57828155600101620001fa565b5050505b505050565b81516001600160401b0381111562000234576200023462000173565b6200024c8162000245845462000189565b84620001c5565b602080601f8311600181146200028457600084156200026b5750858301515b600019600386901b1c1916600185901b1785556200020f565b600085815260208120601f198616915b82811015620002b55788860151825594840194600190910190840162000294565b5085821015620002d45787850151600019600388901b60f8161c191681555b5050505050600190811b01905550565b61146780620002f46000396000f3fe608060405234801561001057600080fd5b506004361061010b5760003560e01c8063715018a6116100a2578063b88d4fde11610071578063b88d4fde1461021b578063c87b56dd1461022e578063d0def52114610241578063e985e9c514610254578063f2fde38b1461026757600080fd5b8063715018a6146101e75780638da5cb5b146101ef57806395d89b4114610200578063a22cb4651461020857600080fd5b806323b872dd116100de57806323b872dd1461018d57806342842e0e146101a05780636352211e146101b357806370a08231146101c657600080fd5b806301ffc9a71461011057806306fdde0314610138578063081812fc1461014d578063095ea7b314610178575b600080fd5b61012361011e366004610f27565b61027a565b60405190151581526020015b60405180910390f35b6101406102a5565b60405161012f9190610f94565b61016061015b366004610fa7565b610337565b6040516001600160a01b03909116815260200161012f565b61018b610186366004610fdc565b610360565b005b61018b61019b366004611006565b61036f565b61018b6101ae366004611006565b6103ff565b6101606101c1366004610fa7565b61041f565b6101d96101d4366004611042565b61042a565b60405190815260200161012f565b61018b610472565b6007546001600160a01b0316610160565b610140610486565b61018b61021636600461105d565b610495565b61018b6102293660046110af565b6104a0565b61014061023c366004610fa7565b6104b8565b6101d961024f36600461118b565b6105c9565b61012361026236600461120e565b61063a565b61018b610275366004611042565b610668565b60006001600160e01b03198216632483248360e11b148061029f575061029f826106a6565b92915050565b6060600080546102b490611241565b80601f01602080910402602001604051908101604052809291908181526020018280546102e090611241565b801561032d5780601f106103025761010080835404028352916020019161032d565b820191906000526020600020905b81548152906001019060200180831161031057829003601f168201915b5050505050905090565b6000610342826106f6565b506000828152600460205260409020546001600160a01b031661029f565b61036b82823361072f565b5050565b6001600160a01b03821661039e57604051633250574960e11b8152600060048201526024015b60405180910390fd5b60006103ab83833361073c565b9050836001600160a01b0316816001600160a01b0316146103f9576040516364283d7b60e01b81526001600160a01b0380861660048301526024820184905282166044820152606401610395565b50505050565b61041a838383604051806020016040528060008152506104a0565b505050565b600061029f826106f6565b60006001600160a01b038216610456576040516322718ad960e21b815260006004820152602401610395565b506001600160a01b031660009081526003602052604090205490565b61047a610835565b6104846000610862565b565b6060600180546102b490611241565b61036b3383836108b4565b6104ab84848461036f565b6103f93385858585610953565b60606104c3826106f6565b50600082815260066020526040812080546104dd90611241565b80601f016020809104026020016040519081016040528092919081815260200182805461050990611241565b80156105565780601f1061052b57610100808354040283529160200191610556565b820191906000526020600020905b81548152906001019060200180831161053957829003601f168201915b50505050509050600061057460408051602081019091526000815290565b90508051600003610586575092915050565b8151156105b85780826040516020016105a092919061127b565b60405160208183030381529060405292505050919050565b6105c184610a7e565b949350505050565b60006105d3610835565b600880549060006105e3836112aa565b9190505590506105f38482610af2565b6106338184848080601f016020809104026020016040519081016040528093929190818152602001838380828437600092019190915250610b0c92505050565b9392505050565b6001600160a01b03918216600090815260056020908152604080832093909416825291909152205460ff1690565b610670610835565b6001600160a01b03811661069a57604051631e4fbdf760e01b815260006004820152602401610395565b6106a381610862565b50565b60006001600160e01b031982166380ac58cd60e01b14806106d757506001600160e01b03198216635b5e139f60e01b145b8061029f57506301ffc9a760e01b6001600160e01b031983161461029f565b6000818152600260205260408120546001600160a01b03168061029f57604051637e27328960e01b815260048101849052602401610395565b61041a8383836001610b5c565b6000828152600260205260408120546001600160a01b039081169083161561076957610769818486610c62565b6001600160a01b038116156107a757610786600085600080610b5c565b6001600160a01b038116600090815260036020526040902080546000190190555b6001600160a01b038516156107d6576001600160a01b0385166000908152600360205260409020805460010190555b60008481526002602052604080822080546001600160a01b0319166001600160a01b0389811691821790925591518793918516917fddf252ad1be2c89b69c2b068fc378daa952ba7f163c4a11628f55a4df523b3ef91a4949350505050565b6007546001600160a01b031633146104845760405163118cdaa760e01b8152336004820152602401610395565b600780546001600160a01b038381166001600160a01b0319831681179093556040519116919082907f8be0079c531659141344cd1fd0a4f28419497f9722a3daafe3b4186f6b6457e090600090a35050565b6001600160a01b0382166108e657604051630b61174360e31b81526001600160a01b0383166004820152602401610395565b6001600160a01b03838116600081815260056020908152604080832094871680845294825291829020805460ff191686151590811790915591519182527f17307eab39ab6107e8899845ad3d59bd9653f200f220920489ca2b5937696c31910160405180910390a3505050565b6001600160a01b0383163b15610a7757604051630a85bd0160e11b81526001600160a01b0384169063150b7a02906109959088908890879087906004016112d1565b6020604051808303816000875af19250505080156109d0575060408051601f3d908101601f191682019092526109cd9181019061130e565b60015b610a39573d8080156109fe576040519150601f19603f3d011682016040523d82523d6000602084013e610a03565b606091505b508051600003610a3157604051633250574960e11b81526001600160a01b0385166004820152602401610395565b805160208201fd5b6001600160e01b03198116630a85bd0160e11b14610a7557604051633250574960e11b81526001600160a01b0385166004820152602401610395565b505b5050505050565b6060610a89826106f6565b506000610aa160408051602081019091526000815290565b90506000815111610ac15760405180602001604052806000815250610633565b80610acb84610cc6565b604051602001610adc92919061127b565b6040516020818303038152906040529392505050565b61036b828260405180602001604052806000815250610d59565b6000828152600660205260409020610b248282611371565b506040518281527ff8e1a15aba9398e019f0b49df1a4fde98ee17ae345cb5f6b5e2c27f5033e8ce79060200160405180910390a15050565b8080610b7057506001600160a01b03821615155b15610c32576000610b80846106f6565b90506001600160a01b03831615801590610bac5750826001600160a01b0316816001600160a01b031614155b8015610bbf5750610bbd818461063a565b155b15610be85760405163a9fbf51f60e01b81526001600160a01b0384166004820152602401610395565b8115610c305783856001600160a01b0316826001600160a01b03167f8c5be1e5ebec7d5bd14f71427d1e84f3dd0314c0f7b2291e5b200ac8c7c3b92560405160405180910390a45b505b5050600090815260046020526040902080546001600160a01b0319166001600160a01b0392909216919091179055565b610c6d838383610d71565b61041a576001600160a01b038316610c9b57604051637e27328960e01b815260048101829052602401610395565b60405163177e802f60e01b81526001600160a01b038316600482015260248101829052604401610395565b60606000610cd383610dd4565b600101905060008167ffffffffffffffff811115610cf357610cf3611099565b6040519080825280601f01601f191660200182016040528015610d1d576020820181803683370190505b5090508181016020015b600019016f181899199a1a9b1b9c1cb0b131b232b360811b600a86061a8153600a8504945084610d2757509392505050565b610d638383610eac565b61041a336000858585610953565b60006001600160a01b038316158015906105c15750826001600160a01b0316846001600160a01b03161480610dab5750610dab848461063a565b806105c15750506000908152600460205260409020546001600160a01b03908116911614919050565b60008072184f03e93ff9f4daa797ed6e38ed64bf6a1f0160401b8310610e135772184f03e93ff9f4daa797ed6e38ed64bf6a1f0160401b830492506040015b6d04ee2d6d415b85acef81000000008310610e3f576d04ee2d6d415b85acef8100000000830492506020015b662386f26fc100008310610e5d57662386f26fc10000830492506010015b6305f5e1008310610e75576305f5e100830492506008015b6127108310610e8957612710830492506004015b60648310610e9b576064830492506002015b600a831061029f5760010192915050565b6001600160a01b038216610ed657604051633250574960e11b815260006004820152602401610395565b6000610ee48383600061073c565b90506001600160a01b0381161561041a576040516339e3563760e11b815260006004820152602401610395565b6001600160e01b0319811681146106a357600080fd5b600060208284031215610f3957600080fd5b813561063381610f11565b60005b83811015610f5f578181015183820152602001610f47565b50506000910152565b60008151808452610f80816020860160208601610f44565b601f01601f19169290920160200192915050565b6020815260006106336020830184610f68565b600060208284031215610fb957600080fd5b5035919050565b80356001600160a01b0381168114610fd757600080fd5b919050565b60008060408385031215610fef57600080fd5b610ff883610fc0565b946020939093013593505050565b60008060006060848603121561101b57600080fd5b61102484610fc0565b925061103260208501610fc0565b9150604084013590509250925092565b60006020828403121561105457600080fd5b61063382610fc0565b6000806040838503121561107057600080fd5b61107983610fc0565b91506020830135801515811461108e57600080fd5b809150509250929050565b634e487b7160e01b600052604160045260246000fd5b600080600080608085870312156110c557600080fd5b6110ce85610fc0565b93506110dc60208601610fc0565b925060408501359150606085013567ffffffffffffffff8082111561110057600080fd5b818701915087601f83011261111457600080fd5b81358181111561112657611126611099565b604051601f8201601f19908116603f0116810190838211818310171561114e5761114e611099565b816040528281528a602084870101111561116757600080fd5b82602086016020830137600060208483010152809550505050505092959194509250565b6000806000604084860312156111a057600080fd5b6111a984610fc0565b9250602084013567ffffffffffffffff808211156111c657600080fd5b818601915086601f8301126111da57600080fd5b8135818111156111e957600080fd5b8760208285010111156111fb57600080fd5b6020830194508093505050509250925092565b6000806040838503121561122157600080fd5b61122a83610fc0565b915061123860208401610fc0565b90509250929050565b600181811c9082168061125557607f821691505b60208210810361127557634e487b7160e01b600052602260045260246000fd5b50919050565b6000835161128d818460208801610f44565b8351908301906112a1818360208801610f44565b01949350505050565b6000600182016112ca57634e487b7160e01b600052601160045260246000fd5b5060010190565b6001600160a01b038581168252841660208201526040810183905260806060820181905260009061130490830184610f68565b9695505050505050565b60006020828403121561132057600080fd5b815161063381610f11565b601f82111561041a57600081815260208120601f850160051c810160208610156113525750805b601f850160051c820191505b81811015610a755782815560010161135e565b815167ffffffffffffffff81111561138b5761138b611099565b61139f816113998454611241565b8461132b565b602080601f8311600181146113d457600084156113bc5750858301515b600019600386901b1c1916600185901b178555610a75565b600085815260208120601f198616915b82811015611403578886015182559484019460019091019084016113e4565b50858210156114215787850151600019600388901b60f8161c191681555b5050505050600190811b0190555056fea2646970667358221220db464a6a790eeb5e9b678930d09a601485c3a72ee316df108e1e949c840d448764736f6c63430008150033",
  "immutableReferences": {},
  "source": "// SPDX-License-Identifier: MIT\r\npragma solidity ^0.8.20;\r\n\r\nimport \"@openzeppelin/contracts/token/ERC721/extensions/ERC721URIStorage.sol\";\r\nimport \"@openzeppelin/contracts/access/Ownable.sol\";\r\n\r\ncontract Condos is ERC721URIStorage, Ownable {\r\n    uint256 private _nextTokenId;\r\n\r\n    constructor(address initialOwner)\r\n        ERC721(\"Condo Ownership Token\", \"CONDOS\")\r\n        Ownable(initialOwner)\r\n    {}\r\n\r\n    function mint(address to, string calldata uri)\r\n        external\r\n        onlyOwner\r\n        returns (uint256 tokenId)\r\n    {\r\n        tokenId = _nextTokenId++;\r\n        _safeMint(to, tokenId);\r\n        _setTokenURI(tokenId, uri);\r\n    }\r\n}",
  "sourcePath": "C:\\tokenwallet\\contracts\\Condos.sol",
  "compiler": {
    "name": "solc",
    "version": "0.8.21+commit.d9974bed.Emscripten.clang"
  },
  "schemaVersion": "3.4.16",
  "updatedAt": "2025-09-19T04:19:51.585Z",
  "networkType": "ethereum",
  "devdoc": {
    "errors": {
      "ERC721IncorrectOwner(address,uint256,address)": [
        {
          "details": "Indicates an error related to the ownership over a particular token. Used in transfers.",
          "params": {
            "owner": "Address of the current owner of a token.",
            "sender": "Address whose tokens are being transferred.",
            "tokenId": "Identifier number of a token."
          }
        }
      ],
      "ERC721InsufficientApproval(address,uint256)": [
        {
          "details": "Indicates a failure with the `operator`s approval. Used in transfers.",
          "params": {
            "operator": "Address that may be allowed to operate on tokens without being their owner.",
            "tokenId": "Identifier number of a token."
          }
        }
      ],
      "ERC721InvalidApprover(address)": [
        {
          "details": "Indicates a failure with the `approver` of a token to be approved. Used in approvals.",
          "params": {
            "approver": "Address initiating an approval operation."
          }
        }
      ],
      "ERC721InvalidOperator(address)": [
        {
          "details": "Indicates a failure with the `operator` to be approved. Used in approvals.",
          "params": {
            "operator": "Address that may be allowed to operate on tokens without being their owner."
          }
        }
      ],
      "ERC721InvalidOwner(address)": [
        {
          "details": "Indicates that an address can't be an owner. For example, `address(0)` is a forbidden owner in ERC-20. Used in balance queries.",
          "params": {
            "owner": "Address of the current owner of a token."
          }
        }
      ],
      "ERC721InvalidReceiver(address)": [
        {
          "details": "Indicates a failure with the token `receiver`. Used in transfers.",
          "params": {
            "receiver": "Address to which tokens are being transferred."
          }
        }
      ],
      "ERC721InvalidSender(address)": [
        {
          "details": "Indicates a failure with the token `sender`. Used in transfers.",
          "params": {
            "sender": "Address whose tokens are being transferred."
          }
        }
      ],
      "ERC721NonexistentToken(uint256)": [
        {
          "details": "Indicates a `tokenId` whose `owner` is the zero address.",
          "params": {
            "tokenId": "Identifier number of a token."
          }
        }
      ],
      "OwnableInvalidOwner(address)": [
        {
          "details": "The owner is not a valid owner account. (eg. `address(0)`)"
        }
      ],
      "OwnableUnauthorizedAccount(address)": [
        {
          "details": "The caller account is not authorized to perform an operation."
        }
      ]
    },
    "events": {
      "Approval(address,address,uint256)": {
        "details": "Emitted when `owner` enables `approved` to manage the `tokenId` token."
      },
      "ApprovalForAll(address,address,bool)": {
        "details": "Emitted when `owner` enables or disables (`approved`) `operator` to manage all of its assets."
      },
      "BatchMetadataUpdate(uint256,uint256)": {
        "details": "This event emits when the metadata of a range of tokens is changed. So that the third-party platforms such as NFT market could timely update the images and related attributes of the NFTs."
      },
      "MetadataUpdate(uint256)": {
        "details": "This event emits when the metadata of a token is changed. So that the third-party platforms such as NFT market could timely update the images and related attributes of the NFT."
      },
      "Transfer(address,address,uint256)": {
        "details": "Emitted when `tokenId` token is transferred from `from` to `to`."
      }
    },
    "kind": "dev",
    "methods": {
      "approve(address,uint256)": {
        "details": "Gives permission to `to` to transfer `tokenId` token to another account. The approval is cleared when the token is transferred. Only a single account can be approved at a time, so approving the zero address clears previous approvals. Requirements: - The caller must own the token or be an approved operator. - `tokenId` must exist. Emits an {Approval} event."
      },
      "balanceOf(address)": {
        "details": "Returns the number of tokens in ``owner``'s account."
      },
      "getApproved(uint256)": {
        "details": "Returns the account approved for `tokenId` token. Requirements: - `tokenId` must exist."
      },
      "isApprovedForAll(address,address)": {
        "details": "Returns if the `operator` is allowed to manage all of the assets of `owner`. See {setApprovalForAll}"
      },
      "name()": {
        "details": "Returns the token collection name."
      },
      "owner()": {
        "details": "Returns the address of the current owner."
      },
      "ownerOf(uint256)": {
        "details": "Returns the owner of the `tokenId` token. Requirements: - `tokenId` must exist."
      },
      "renounceOwnership()": {
        "details": "Leaves the contract without owner. It will not be possible to call `onlyOwner` functions. Can only be called by the current owner. NOTE: Renouncing ownership will leave the contract without an owner, thereby disabling any functionality that is only available to the owner."
      },
      "safeTransferFrom(address,address,uint256)": {
        "details": "Safely transfers `tokenId` token from `from` to `to`, checking first that contract recipients are aware of the ERC-721 protocol to prevent tokens from being forever locked. Requirements: - `from` cannot be the zero address. - `to` cannot be the zero address. - `tokenId` token must exist and be owned by `from`. - If the caller is not `from`, it must have been allowed to move this token by either {approve} or   {setApprovalForAll}. - If `to` refers to a smart contract, it must implement {IERC721Receiver-onERC721Received}, which is called upon   a safe transfer. Emits a {Transfer} event."
      },
      "safeTransferFrom(address,address,uint256,bytes)": {
        "details": "Safely transfers `tokenId` token from `from` to `to`. Requirements: - `from` cannot be the zero address. - `to` cannot be the zero address. - `tokenId` token must exist and be owned by `from`. - If the caller is not `from`, it must be approved to move this token by either {approve} or {setApprovalForAll}. - If `to` refers to a smart contract, it must implement {IERC721Receiver-onERC721Received}, which is called upon   a safe transfer. Emits a {Transfer} event."
      },
      "setApprovalForAll(address,bool)": {
        "details": "Approve or remove `operator` as an operator for the caller. Operators can call {transferFrom} or {safeTransferFrom} for any token owned by the caller. Requirements: - The `operator` cannot be the address zero. Emits an {ApprovalForAll} event."
      },
      "supportsInterface(bytes4)": {
        "details": "Returns true if this contract implements the interface defined by `interfaceId`. See the corresponding https://eips.ethereum.org/EIPS/eip-165#how-interfaces-are-identified[ERC section] to learn more about how these ids are created. This function call must use less than 30 000 gas."
      },
      "symbol()": {
        "details": "Returns the token collection symbol."
      },
      "tokenURI(uint256)": {
        "details": "Returns the Uniform Resource Identifier (URI) for `tokenId` token."
      },
      "transferFrom(address,address,uint256)": {
        "details": "Transfers `tokenId` token from `from` to `to`. WARNING: Note that the caller is responsible to confirm that the recipient is capable of receiving ERC-721 or else they may be permanently lost. Usage of {safeTransferFrom} prevents loss, though the caller must understand this adds an external call which potentially creates a reentrancy vulnerability. Requirements: - `from` cannot be the zero address. - `to` cannot be the zero address. - `tokenId` token must be owned by `from`. - If the caller is not `from`, it must be approved to move this token by either {approve} or {setApprovalForAll}. Emits a {Transfer} event."
      },
      "transferOwnership(address)": {
        "details": "Transfers ownership of the contract to a new account (`newOwner`). Can only be called by the current owner."
      }
    },
    "version": 1
  },
  "userdoc": {
    "kind": "user",
    "methods": {},
    "version": 1
  }
}